:10000000F42F5F2E622E652E682E6B2E6E2E712EB3
:10001000742E772E7A2E992EA12EA92EB12EB92EBE
:10002000C12EC92ED12EEB2EF62E012F0E2F1C2FF6
:06003000272F342F422FA0
:100C14007E088A007F0882000A268000840A04086D
:100C24007D0603190034FF0A0319FE0A0E2EF30091
:100C3400F201731C212E7008F1007108F2070310F1
:100C4400F00D0310F30C7308031D1B2E720808002B
:100C54000030F000F1005726622776088312031350
:100C6400B9007508B800380A0319390A03192E2E79
:100C74003908F1003808F0002D2E01340034023414
:100C840000340334003404340034053400340634AE
:100C94000034073400340834003409340034013497
:100CA4000034003400340234003483160313860104
:100CB400FF30831203138600802EC03086000800A4
:100CC400F93086000800A43086000800B0308600A1
:100CD40008009930860008009230860008008230AF
:100CE40086000800F830860008008030860008007E
:100CF400903086000800FF30860008007108003A32
:100D04000319852E7D2E700884000A30040203180E
:100D14007D2E00308A000130040782000800003074
:100D2400730202300319720203180800D92E720CE0
:100D340083120313031C0710031807140800720C12
:100D440083120313031C8710031887140800720C02
:100D540083120313031C0711031807150800720CF0
:100D640083120313031C8711031887150800720CE0
:100D740083120313031C0712031807160800720CCE
:100D840083120313031C8712031887160800720CBE
:100D940083120313031C0713031807170800720CAC
:100DA40083120313031C87130318871708007108A1
:100DB400003A0319DE2EE92E70088400083004027C
:100DC4000318080000308A000B3004078200080072
:100DD400512F8312031307080139F200F30172083B
:100DE400F0007308F100080083120313070C0139A3
:100DF400F200F3017208F0007308F1000800831296
:100E04000313070CF200720C0139F300F4017308A8
:100E1400F0007408F100080083120313070CF200B9
:100E2400F20C720C0139F300F4017308F000740839
:100E3400F100080083120313070E0139F200F301D5
:100E44007208F0007308F100080083120313070E00
:100E5400F200720C0139F300F4017308F000740815
:100E6400F100080083120313070EF200F20C720C57
:100E74000139F300F4017308F0007408F10008006C
:100E840083120313070D070D0139F200F3017208F1
:100E9400F0007308F1000800F001F1010800710886
:100EA400003A0319562F4E2F7008840008300402AC
:100EB40003184E2F00308A00133004078200080004
:100EC400F030831603138700FC01FD017D08803A8E
:100ED400FF0080307F02031D712F05307C02031850
:100EE400EF2F0230F9000430F800BA30F700F70BA6
:100EF400792FF80B792FF90B792F00007D08F10079
:100F04007C08F0000130F2000030F3009126FA0171
:100F1400FB017B08803AFF0080307F02031D942F81
:100F240003307A020318D62F7A08043EF0007B08B7
:100F34000318013E003EF100EA267008710403190B
:100F4400C52F7D08F1007C08F0000030F200F300AA
:100F540091267A08F70001300310F70DFF3E031DB8
:100F6400AE2F0630F8007808F0007C081926203EE1
:100F74007707F9007908840083130008F500840AD0
:100F84000008F60008000130FA070318FB0A0030D5
:100F9400FB077B08803AFF0080307F02031DD42FBB
:100FA40003307A02031C962F7D08F1007C08F000C0
:100FB4000030F200F30091260130FC070318FD0A0B
:100FC4000030FD077D08803AFF0080307F02031D5A
:100FD400ED2F05307C02031C732FFF30F500FF302A
:100FE400F600080083133830FD000630FE003F3061
:0C0FF400FF00203084000E2683012A2E0E
:02400E007AFD39
:00000001FF
